:100000000C942A000C9482000C94A9000C94D0004B
:100010000C9447000C9447000C9447000C94470044
:100020000C9447000C9447000C94AD010C9478019B
:100030000C9447000C9447000C9447000C94470024
:100040000C9447000C9447000C9447000C94470014
:100050000C94470011241FBECFE5D8E0DEBFCDBF12
:1000600010E0A0E6B0E0E4EEF6E002C005900D92EC
:10007000AA36B107D9F720E0AAE6B0E001C01D9288
:10008000AB37B207E1F70E947F000C9470030C9429
:10009000000098B388E0892788BB2FE986E891E0C3
:1000A000215080409040E1F700C000000895CF93B8
:1000B000DF9300D000D01F92CDB7DEB785E0E0E639
:1000C000F0E0DE01119601900D928A95E1F7CE01E4
:1000D00001960E94220187B3886087BB8BE40E944F
:1000E000600189E490E00E949F010E94F7000F9058
:1000F0000F900F900F900F90DF91CF9108950E9475
:100100005700FFCF1F920F920FB60F9211242F931B
:100110003F934F935F936F937F938F939F93AF938F
:10012000BF93EF93FF93E0916E00F0916F000995FC
:10013000FF91EF91BF91AF919F918F917F916F91BF
:100140005F914F913F912F910F900FBE0F901F9095
:1001500018951F920F920FB60F9211242F933F9371
:100160004F935F936F937F938F939F93AF93BF93BF
:10017000EF93FF93E0916C00F0916D000995FF9172
:10018000EF91BF91AF919F918F917F916F915F910F
:100190004F913F912F910F900FBE0F901F90189588
:1001A0001F920F920FB60F9211242F933F934F93EC
:1001B0005F936F937F938F939F93AF93BF93EF93CF
:1001C000FF93E0916A00F0916B000995FF91EF9128
:1001D000BF91AF919F918F917F916F915F914F915F
:1001E0003F912F910F900FBE0F901F9018958FB7D2
:1001F00080688FBF0895FC012081283439F423B72B
:10020000206423BF23B7286023BF08C0203431F403
:1002100023B7277F23BF23B7206423BFFC0184813A
:10022000823039F483B7806283BF83B78F7E83BF08
:100230000895813031F483B7806283BF83B78061D2
:1002400083BF0895CF93FC0195E0A4E7B0E001904F
:100250000D929A95E1F780917400882331F08830EF
:1002600021F0803411F0883419F493B7892B83BFBF
:1002700080917500883018F493B7892B83BF8091E3
:100280007700813019F499B7892B89BF8091760066
:10029000823029F499B7892B89BFC0E001C0C1E041
:1002A00080917400803411F0883421F484E790E068
:1002B0000E94FB008C2FCF9108958CBF80E00895A1
:1002C000682F70E080E090E00E94770220E030E04C
:1002D00048EC52E40E94D40120E030E04FE753E4C0
:1002E0000E9403030E944602862F0E945D0108952A
:1002F0001F920F920FB60F9211242F933F934F939B
:100300005F936F937F938F939F93AF93BF93EF937D
:10031000FF93E0917200F09173000995FF91EF91C6
:10032000BF91AF919F918F917F916F915F914F910D
:100330003F912F910F900FBE0F901F9018959C0129
:10034000909179009F5F909379002115310521F0FC
:10035000309371002093700008951F920F920FB692
:100360000F9211242F933F934F935F936F937F933B
:100370008F939F93AF93BF93EF93FF93E0917000A0
:10038000F09171000995FF91EF91BF91AF919F910D
:100390008F917F916F915F914F913F912F910F902E
:1003A0000FBE0F901F9018950E94E8010C94C9028F
:1003B0000E94C20258F00E94BB0240F029F45F3F45
:1003C00029F00C94B20251110C94FD020C94B80265
:1003D0000E94DA0268F39923B1F3552391F3951B38
:1003E000550BBB27AA2762177307840738F09F5F56
:1003F0005F4F220F331F441FAA1FA9F335D00E2EC3
:100400003AF0E0E832D091505040E695001CCAF72F
:100410002BD0FE2F29D0660F771F881FBB1F2617F2
:1004200037074807AB07B0E809F0BB0B802DBF01C9
:10043000FF2793585F4F3AF09E3F510578F00C9498
:10044000B2020C94FD025F3FE4F3983ED4F386952C
:1004500077956795B795F7959F5FC9F7880F911DB9
:100460009695879597F90895E1E0660F771F881FA5
:10047000BB1F621773078407BA0720F0621B730B58
:10048000840BBA0BEE1F88F7E09508950E94E202F4
:1004900088F09F5798F0B92F9927B751B0F0E1F045
:1004A000660F771F881F991F1AF0BA95C9F714C0F5
:1004B000B13091F00E94FC02B1E008950C94FC026E
:1004C000672F782F8827B85F39F0B93FCCF386952E
:1004D00077956795B395D9F73EF49095809570958B
:1004E00061957F4F8F4F9F4F0895E89409C097FB08
:1004F0003EF490958095709561957F4F8F4F9F4FFB
:100500009923A9F0F92F96E9BB279395F69587953E
:1005100077956795B795F111F8CFFAF4BB0F11F401
:1005200060FF1BC06F5F7F4F8F4F9F4F16C08823A8
:1005300011F096E911C0772321F09EE8872F762FDE
:1005400005C0662371F096E8862F70E060E02AF01F
:100550009A95660F771F881FDAF7880F969587950B
:1005600097F9089597F99F6780E870E060E0089533
:100570009FEF80EC089500240A94161617061806BB
:100580000906089500240A94121613061406050697
:100590000895092E0394000C11F4882352F0BB0F28
:1005A00040F4BF2B11F460FF04C06F5F7F4F8F4F8B
:1005B0009F4F089557FD9058440F551F59F05F3FC6
:1005C00071F04795880F97FB991F61F09F3F79F075
:1005D00087950895121613061406551FF2CF4695F7
:1005E000F1DF08C0161617061806991FF1CF869579
:1005F0007105610508940895E894BB27662777275D
:10060000CB0197F908950E9416030C94C9020E9429
:10061000BB0238F00E94C20220F0952311F00C9426
:10062000B2020C94B80211240C94FD020E94DA026A
:1006300070F3959FC1F3950F50E0551F629FF00135
:10064000729FBB27F00DB11D639FAA27F00DB11D4E
:10065000AA1F649F6627B00DA11D661F829F2227D7
:10066000B00DA11D621F739FB00DA11D621F839F5E
:10067000A00D611D221F749F3327A00D611D231F34
:10068000849F600D211D822F762F6A2F11249F5782
:1006900050409AF0F1F088234AF0EE0FFF1FBB1F85
:1006A000661F771F881F91505040A9F79E3F510544
:1006B00080F00C94B2020C94FD025F3FE4F3983E8C
:1006C000D4F3869577956795B795F795E7959F5FEE
:1006D000C1F7FE2B880F911D9695879597F9089580
:0406E000F894FFCFBC
:0A06E400400202FE01080202FE00BF
:00000001FF
