:100000000C942A000C9482000C94A9000C94D0004B
:100010000C9447000C9447000C9447000C94470044
:100020000C9447000C9447000C9496010C946101C9
:100030000C9447000C9447000C9447000C94470024
:100040000C9447000C9447000C9447000C94470014
:100050000C94470011241FBECFE5D8E0DEBFCDBF12
:1000600010E0A0E6B0E0EEE7F3E002C005900D92EC
:10007000AA36B107D9F720E0AAE6B0E001C01D9288
:10008000AB37B207E1F70E947F000C94BD010C94DE
:10009000000098B388E0892788BB2FE986E891E0C3
:1000A000215080409040E1F700C000000895CF93B8
:1000B000DF9300D000D01F92CDB7DEB785E0E0E639
:1000C000F0E0DE01119601900D928A95E1F7CE01E4
:1000D00001960E94230187B3886087BB8FEB0E9443
:1000E0005E0189E490E00E9488010E94F7000F9071
:1000F0000F900F900F900F90DF91CF9108950E9475
:100100005700FFCF1F920F920FB60F9211242F931B
:100110003F934F935F936F937F938F939F93AF938F
:10012000BF93EF93FF93E0916E00F0916F000995FC
:10013000FF91EF91BF91AF919F918F917F916F91BF
:100140005F914F913F912F910F900FBE0F901F9095
:1001500018951F920F920FB60F9211242F933F9371
:100160004F935F936F937F938F939F93AF93BF93BF
:10017000EF93FF93E0916C00F0916D000995FF9172
:10018000EF91BF91AF919F918F917F916F915F910F
:100190004F913F912F910F900FBE0F901F90189588
:1001A0001F920F920FB60F9211242F933F934F93EC
:1001B0005F936F937F938F939F93AF93BF93EF93CF
:1001C000FF93E0916A00F0916B000995FF91EF9128
:1001D000BF91AF919F918F917F916F915F914F915F
:1001E0003F912F910F900FBE0F901F9018958FB7D2
:1001F00080688FBF0895FC012081283439F423B72B
:10020000206423BF23B7286023BF08C0203431F403
:1002100023B7277F23BF23B7206423BFFC0184813A
:10022000823039F483B7806283BF83B78F7E83BF08
:1002300008C0813031F483B7806283BF83B78061A7
:1002400083BF1CBE0895CF93FC0195E0A4E7B0E006
:1002500001900D929A95E1F780917400882331F016
:10026000883021F0803411F0883419F493B7892B49
:1002700083BF80917500883018F493B7892B83BFB2
:1002800080917700813019F499B7892B89BF8091CB
:100290007600823029F499B7892B89BFC0E001C06C
:1002A000C1E080917400803411F0883421F484E737
:1002B00090E00E94FB008C2FCF9108958CBF80E0CE
:1002C00008951F920F920FB60F9211242F933F9310
:1002D0004F935F936F937F938F939F93AF93BF934E
:1002E000EF93FF93E0917200F09173000995FF91F5
:1002F000EF91BF91AF919F918F917F916F915F919E
:100300004F913F912F910F900FBE0F901F90189516
:100310009C01909179009F5F9093790021153105A0
:1003200021F0309371002093700008951F920F9276
:100330000FB60F9211242F933F934F935F936F93B8
:100340007F938F939F93AF93BF93EF93FF93E0912E
:100350007000F09171000995FF91EF91BF91AF91FD
:100360009F918F917F916F915F914F913F912F91CD
:0E0370000F900FBE0F901F901895F894FFCFBE
:0A037E00480202FE02080202FE001F
:00000001FF
