S01A00004C43445F4B65797061645F447269766572732E737265633C
S11300000C942A000C943F000C943F000C943F0085
S11300100C943F000C943F000C943F000C943F0060
S11300200C943F000C943F000C943F000C943F0050
S11300300C943F000C943F000C943F000C943F0040
S11300400C943F000C943F000C943F000C943F0030
S11300500C943F0011241FBECFE5D8E0DEBFCDBF16
S113006010E0A0E6B0E0E8E0F3E002C005900D92F5
S1130070A836B107D9F70E9471010C9482010C943F
S1130080000081B3807F81BB81B3806F81BB8FEF20
S113009082BB08950F931F93CF93DF9340E050E00A
S11300A099C032B3E0E6F0E081E090E08C0100809A
S11300B002C0000F111F0A94E2F7EC01018002C094
S11300C0CC0FDD1F0A94E2F7DC01028002C0AA0F04
S11300D0BB1F0A94E2F7BC01038002C0660F771FBE
S11300E00A94E2F72C2F202B2A2B262B232B22BB1E
S11300F022B3FA01E05AFF4F008002C0880F991F13
S11301000A94E2F78095822382BB60E070E05CC0D1
S113011080B3FB01EC59FF4FE0812E2F90E002C029
S113012095958795EA95E2F780FD4CC080B390E001
S1130130022E02C0959587950A94E2F780FFF6CFC8
S113014041305105C9F024F44115510541F03AC03C
S113015042305105F1F04330510541F133C061158E
S11301607105F1F161307105E9F162307105E1F178
S11301706330710539F53AC061157105C9F1613013
S11301807105C1F162307105B9F163307105D1F4C3
S113019035C061157105A1F16130710599F16230C5
S11301A0710591F16330710569F430C06115710511
S11301B079F16130710571F16230710569F1633073
S11301C0710561F16F5F7F4F643071050CF4A0CF4E
S11301D04F5F5F4F443051050CF463CF8EE41FC072
S11301E087E31DC084E31BC081E319C081E217C00B
S11301F088E315C085E313C082E311C080E30FC018
S113020089E30DC086E30BC083E309C08DE307C017
S11302108FE205C08AE203C08DE201C08BE2DF9168
S1130220CF911F910F91089588B38E7F88BB83ED82
S113023090E30197F1F700C0000088B3816088BBA8
S113024008951ABA88B3826088BB88B38B7F88BB51
S11302500E9414018FEF8ABB88B38D7F88BB0895F9
S1130260CF93C82F0E942101CBBB88B3897F88BB61
S11302700E941401CF91089581E00E9430010895F5
S113028087E893E10197F1F700C000000E94210183
S113029087B3876087BB88B3887F88BB8FEF8ABBAF
S11302A00E943C0188E30E94300186E00E943001F4
S11302B080E80E9430018FE00E9430010895CF93BE
S11302C0C82F0E94210188B3846088BBCBBB88B34C
S11302D08D7F88BB88B3846088BB0E941401CF9152
S11302E008950E9440010E9441000E944A00813208
S11302F019F08E34D1F303C00E943C01F6CF0E9462
S10B03005F01F3CFF894FFCF75
S10B03080405060700010203CD
S9030000FC
