S00F00004C43445F4C61622E73726563D4
S11300000C942A000C943F000C943F000C943F0085
S11300100C943F000C943F000C943F000C943F0060
S11300200C943F000C943F000C943F000C943F0050
S11300300C943F000C943F000C943F000C943F0040
S11300400C943F000C943F000C943F000C943F0030
S11300500C943F0011241FBECFE5D8E0DEBFCDBF16
S113006010E0A0E6B0E0ECEBF1E002C005900D92E8
S1130070A238B107D9F70E94CD000C94DC000C948F
S1130080000088B38E7F88BB83ED90E30197F1F77E
S113009000C0000088B3816088BB08951ABA88B391
S11300A0826088BB88B38B7F88BB0E9441008FEF3E
S11300B08ABB88B38D7F88BB0895CF93C82F0E94D5
S11300C04E00CBBB88B3897F88BB0E944100CF918F
S11300D00895603168F4813029F480E8860F0E9425
S11300E05D000895823021F480EC860F0E945D004B
S11300F0089581E00E945D00089587E893E10197E7
S1130100F1F700C000000E944E0087B3876087BBF0
S113011088B3887F88BB0E94790088E30E945D00D1
S113012086E00E945D0080E80E945D008FE00E94EE
S11301305D000895CF93C82F0E944E00CBBB88B3B7
S1130140846088BB88B38D7F88BB0E944100CF91B7
S113015008950F931F93CF938C01C0E016C00F5FD7
S11301601F4F0E949A00CF5FC03129F460E082E003
S11301700E9469000AC0C03241F481E00E945D001F
S113018060E081E00E946900C0E0F8018081811193
S1130190E6CFCF911F910F9108950E947D0080E6D4
S11301A090E00E94A90061E282E00E9469008EE66C
S10F01B090E00E94A900FFCFF894FFCF5C
S11301BC45736C616D2053616C6D612F4500616DED
S11301CC69722F616D69722F616D69722F616D692E
S10501DC7200AB
S9030000FC
