:100000000C942A000C9434000C9434000C943400AA
:100010000C9434000C9434000C9434000C94340090
:100020000C9434000C9434000C9434000C94340080
:100030000C9434000C9434000C9434000C94340070
:100040000C9434000C9434000C9434000C94340060
:100050000C94340011241FBECFE5D8E0DEBFCDBF25
:100060000E9436000C949B000C9400008FEF81BB23
:1000700012BA82B3806282BB2FE382E49FE02150F8
:1000800080409040E1F700C0000082B38F7D82BBCA
:100090002FE382E49FE0215080409040E1F700C0D0
:1000A000000082B3806482BB2FE382E49FE0215092
:1000B00080409040E1F700C0000082B38F7B82BB9C
:1000C0002FE382E49FE0215080409040E1F700C0A0
:1000D000000082B3806882BB2FE78AE196E021505E
:1000E00080409040E1F700C0000082B38F7782BB70
:1000F0002FE382E49FE0215080409040E1F700C070
:10010000000082B3806182BB2FE382E49FE0215034
:1001100080409040E1F700C0000082B38F7E82BB38
:1001200012BA2FE382E49FE0215080409040E1F733
:0A01300000C000009ECFF894FFCF3E
:00000001FF
