:100000000C942A000C9456000C943C000C943C0078
:100010000C943C000C943C000C943C000C943C0070
:100020000C943C000C943C000C943C000C943C0060
:100030000C943C000C943C000C943C000C943C0050
:100040000C943C000C943C000C943C000C943C0040
:100050000C943C0011241FBECFE5D8E0DEBFCDBF1D
:1000600020E0A0E6B0E001C01D92A236B207E1F7A1
:100070000E948C000C94A5000C94000085B7816050
:1000800085BF08950E943E008BB780648BBF8FB7F9
:1000900080688FBF08958AB780648ABF08950097EB
:1000A00021F0909361008093600008951F920F9259
:1000B0000FB60F9211242F933F934F935F936F933B
:1000C0007F938F939F93AF93BF93EF93FF93E091B1
:1000D0006000F09161000995FF91EF91BF91AF91A0
:1000E0009F918F917F916F915F914F913F912F9150
:1000F0000F900FBE0F901F90189582B3806482BB43
:100100002FE784E89EE1215080409040E1F700C055
:1001100000000E944B0008950E9442008DE790E08D
:100120000E944F0081B38B7F81BB81B3806481BB10
:1001300082B38F7B82BB2FE38DE093E02150804020
:0E0140009040E1F700C00000F3CFF894FFCF2D
:00000001FF
