:100000000C942A000C9447000C9447000C94470071
:100010000C9447000C9447000C9447000C94470044
:100020000C9447000C9447000C9447000C94470034
:100030000C9447000C9447000C9447000C948101E9
:100040000C9447000C9447000C9447000C94470014
:100050000C94470011241FBECFE5D8E0DEBFCDBF12
:1000600010E0A0E6B0E0E4EEF3E002C005900D92EF
:10007000A037B107D9F720E0A0E7B0E001C01D929A
:10008000A237B207E1F70E94F7000C94F0010C943C
:10009000000088B38E7F88BB83ED90E30197F1F772
:1000A00000C0000088B3816088BB08951ABA88B385
:1000B000826088BB88B38B7F88BB0E9449008FEF2A
:1000C0008ABB88B38D7F88BB0895CF93C82F0E94C9
:1000D0005600CBBB88B3897F88BB0E944900CF9173
:1000E0000895603168F4813029F480E8860F0E9419
:1000F00065000895823021F480EC860F0E9465002F
:10010000089581E00E946500089587E893E10197D2
:10011000F1F700C000000E94560087B3876087BBDC
:1001200088B3887F88BB8FEF8ABB0E94810088E3F9
:100130000E94650086E00E94650080E80E946500DC
:100140008FE00E9465000895CF93C82F0E9456004B
:1001500088B3846088BBCBBB88B38D7F88BB88B3F2
:10016000846088BB0E944900CF9108950F931F932C
:10017000CF938C01C0E016C00F5F1F4F0E94A400F8
:10018000CF5FC03129F460E082E00E9471000AC0B4
:10019000C03241F481E00E94650060E081E00E948D
:1001A0007100C0E0F80180818111E6CFCF911F91ED
:1001B0000F910895CF93DF93CDB7DEB7A0970FB619
:1001C000F894DEBF0FBECDBF4AE0BE016F5F7F4F28
:1001D0000E94BB01CE0101960E94B600A0960FB608
:1001E000F894DEBF0FBECDBFDF91CF910895CF93BE
:1001F000DF93CDB7DEB7A8970FB6F894DEBF0FBE7A
:10020000CDBF0E9485000E94340160E082E00E9420
:10021000710082E690E00E94B6008BE690E00E94BA
:100220006B0110E060E081E00E947100CE01019658
:100230000E945301CE0101960E94B60068E082E060
:100240000E947100812F90E00E94DA001F5F1A3037
:1002500009F410E02FE382E49FE0215080409040B9
:10026000E1F700C00000DECF83E389B98BB18D7F59
:100270008BB980B58F7E80BD80B58F7D80BD80B508
:10028000826080BD80B5846080BD8AB18B7F8AB971
:100290008AB188608AB98AB180618AB908955F9B02
:1002A000FECF8CB10895CF93DF93EC010E944F01F4
:1002B000888304C021960E944F01888388818D30F5
:1002C000C9F71882DF91CF9108958CB908958AB14A
:1002D00080648AB90895CF93DF939C019091610067
:1002E000913061F4E9010E94670188810E946501F3
:1002F000D0937100C093700010926100DF91CF9194
:1003000008951F920F920FB60F9211242F933F93CF
:100310004F935F936F937F938F939F93AF93BF930D
:10032000EF93FF9380916000E0917000F091710075
:10033000E80FF11D8081882341F00E9465018091C2
:1003400060008F5F8093600005C081E08093610052
:1003500080936000FF91EF91BF91AF919F918F913A
:100360007F916F915F914F913F912F910F900FBEB1
:100370000F901F901895BB274A3031F4992322F42F
:10038000BDE2909581959F4F0C94C701BB27FB015F
:100390005527AA27880F991FAA1FA41710F0A41B7E
:1003A00083955051B9F7A05DAA3308F0A95DA193D8
:1003B000009779F7B111B1931192CB010C94E00140
:1003C000DC01FC01672F71917723E1F7329704C0BC
:1003D0007C916D9370836291AE17BF07C8F3089547
:0403E000F894FFCFBF
:1003E400010154696D6572203D2000414D49520060
:00000001FF
