:100000000C942A000C9434000C9434000C943400AA
:100010000C9434000C9434000C9434000C94340090
:100020000C9434000C9434000C9434000C94340080
:100030000C9434000C9434000C9434000C94340070
:100040000C9434000C9434000C9434000C94340060
:100050000C94340011241FBECFE5D8E0DEBFCDBF25
:100060000E9436000C9464000C94000084B38160FC
:1000700084BB2FE986E891E0215080409040E1F771
:1000800000C0000086E00E945D0095B381E08927F2
:1000900085BB2FE78AE196E0215080409040E1F750
:1000A00000C000000E945500EDCF81B5806181BD88
:1000B00081B5886081BD11BC089591B5986091BDEE
:0C00C00091B5892B81BD0895F894FFCF05
:00000001FF
