:100000000C942A000C9472010C9499010C94C00178
:100010000C9447000C9447000C9447000C94470044
:100020000C9447000C9447000C940E020C94E701CA
:100030000C9447000C9447000C9447000C94470024
:100040000C9447000C9447000C9447000C94470014
:100050000C94470011241FBECFE5D8E0DEBFCDBF12
:1000600010E0A0E6B0E0ECE7F4E002C005900D92ED
:10007000AC36B107D9F720E0ACE6B0E001C01D9284
:10008000A837B207E1F70E941F010C943C020C94C0
:10009000000088B3886088BB83ED90E30197F1F797
:1000A00000C0000088B3877F88BB08958AB38F7033
:1000B0008ABB88B3846088BB88B38D7F88BB0E946D
:1000C00049008AB3806F8ABB88B38B7F88BB089551
:1000D000CF93C82F0E9456008BB38F709C2F907FB8
:1000E000892B8BBB88B3897F88BB0E9449002BB3C7
:1000F00030E1C39FC0011124922F9F70892B8BBBCD
:1001000088B3897F88BB0E944900CF91089581E020
:100110000E9468000895CF93DF93C82FD62F8130B7
:1001200031F4603120F480E8860F0E946800C2300C
:1001300031F4D03120F480EC8D0F0E946800DF9103
:10014000CF91089587E893E10197F1F700C000008F
:1001500087B38E6087BB88B3817F88BB8FEF8ABBF4
:1001600085EA9EE00197F1F700C000000E94870039
:1001700082E00E94680088E20E94680086E00E9497
:10018000680080E80E9468008FE00E94680008957F
:10019000CF93C82F8BB38F709C2F907F892B8BBBF5
:1001A00088B3826088BB88B38B7F88BB0E9449007C
:1001B0002BB330E1C39FC0011124922F9F70892B74
:1001C0008BBB88B3826088BB88B38B7F88BB0E945F
:1001D0004900CF9108950F931F93CF93DF938C0124
:1001E000C0E0D0E018C021960F5F1F4F0E94C800EA
:1001F000C031D10529F460E082E00E948B000BC081
:10020000C032D10541F40E94870060E081E00E9485
:100210008B00C0E0D0E0F80180818111E4CFDF9154
:10022000CF911F910F910895682F70E080E090E0CA
:100230000E94350280E090E00E94EB000895CF9389
:10024000DF9300D0CDB7DEB786E0898381E08A8373
:10025000CE0101960E9458010E94A20080E690E023
:100260000E94EB0067E081E00E948B0080E00E942A
:10027000670128E833E1AC01429FC001439F900D24
:10028000529F900D1124892F869586950E94140106
:1002900087E690E00E94EB005FE38DE093E0515031
:1002A00080409040E1F700C000000E948700D6CF58
:1002B000FC01908181819093760080937700906813
:1002C0008295880F880F807C87B996B9089597B179
:1002D000892B87B986B1806486B93699FECF84B1FF
:1002E00090E008951F920F920FB60F9211242F9352
:1002F0003F934F935F936F937F938F939F93AF93AE
:10030000BF93EF93FF93E0917000F0917100099516
:10031000FF91EF91BF91AF919F918F917F916F91DD
:100320005F914F913F912F910F900FBE0F901F90B3
:1003300018951F920F920FB60F9211242F933F938F
:100340004F935F936F937F938F939F93AF93BF93DD
:10035000EF93FF93E0916E00F0916F000995FF918C
:10036000EF91BF91AF919F918F917F916F915F912D
:100370004F913F912F910F900FBE0F901F901895A6
:100380001F920F920FB60F9211242F933F934F930A
:100390005F936F937F938F939F93AF93BF93EF93ED
:1003A000FF93E0916C00F0916D000995FF91EF9142
:1003B000BF91AF919F918F917F916F915F914F917D
:1003C0003F912F910F900FBE0F901F9018951F9285
:1003D0000F920FB60F9211242F933F934F935F9379
:1003E0006F937F938F939F93AF93BF93EF93FF93FD
:1003F000E0917400F09175000995FF91EF91BF9124
:10040000AF919F918F917F916F915F914F913F91AC
:100410002F910F900FBE0F901F9018951F920F9263
:100420000FB60F9211242F933F934F935F936F93C7
:100430007F938F939F93AF93BF93EF93FF93E0913D
:100440007200F09173000995FF91EF91BF91AF9108
:100450009F918F917F916F915F914F913F912F91DC
:100460000F900FBE0F901F901895FB01DC010190BB
:0C0470000D920020E1F70895F894FFCFF2
:0C047C00564F4C54203A00206D760000D2
:00000001FF
